:10000000C0810020AD4A0000E9AB0000014B0000B8
:10001000014B0000014B0000014B000000000000FC
:10002000000000000000000000000000A5480000E3
:10003000014B0000000000005148000085A90000AD
:100040006D4A00006D4A00006D4A00006D4A0000D4
:100050006D4A00006D4A00006D4A00006D4A0000C4
:100060006D4A00006D4A00006D4A00006D4A0000B4
:100070006D4A00006D4A00006D4A00006D4A0000A4
:100080006D4A00006D4A00006D4A00006D4A000094
:100090006D4A00006D4A00006D4A00006D4A000084
:1000A0006D4A00006D4A00006D4A00006D4A000074
:1000B0006D4A00006D4A00006D4A00006D4A000064
:1000C0006D4A00006D4A00006D4A00006D4A000054
:1000D0006D4A00006D4A00006D4A00006D4A000044
:1000E0006D4A00006D4A00006D4A00006D4A000034
:1000F0006D4A00006D4A00006D4A00006D4A000024
:1001000053B94AB9002908BF00281CBF4FF0FF317E
:100110004FF0FF3000F06CB9ADF1080C6DE904CE82
:1001200000F006F8DDF804E0DDE9022304B07047D2
:100130002DE9F047089E0D4604468E46002B40F000
:1001400082808A42174646D9B2FA82F24AB1C2F197
:10015000200105FA02F320FA01F1974041EA030E6B
:1001600094404FEA1748230CBEFBF8FCB9B208FBD9
:100170001CEE43EA0E430CFB01F098420AD9FB182F
:100180000CF1FF3580F01681984240F21381ACF1FA
:10019000020C3B441B1AA4B2B3FBF8F008FB10336B
:1001A00044EA034400FB01F1A14209D93C1900F1E2
:1001B000FF3380F00181A14240F2FE8002383C44CE
:1001C000641A40EA0C4000211EB1D4400023C6E965
:1001D0000043BDE8F08702B9FFDEB2FA82F2002ADE
:1001E0004FD1CB1B4FEA174E1FFA87F80121B3FB03
:1001F000FEFC250C0EFB1C3345EA034508FB0CF303
:10020000AB4207D97D190CF1FF3002D2AB4200F2AC
:10021000E7808446ED1AA3B2B5FBFEF00EFB105545
:1002200043EA054408FB00F8A04507D93C1900F152
:10023000FF3302D2A04500F2D7801846A4EB080491
:1002400040EA0C40C0E78B4208D9002E00F0AF8096
:100250000021C6E900050846BDE8F087B3FA83F13E
:1002600000294BD1AB4202D3824200F2B780841AFC
:1002700065EB030301209E46002EAAD0C6E9004E7E
:10028000A7E7C2F1200C01FA02F3974020FA0CF024
:100290004FEA174E21FA0CFC1843BCFBFEF1050C8B
:1002A0000EFB11CC1FFA87F845EA0C4501FB08F359
:1002B000AB4204FA02F409D97D1901F1FF3C80F048
:1002C0008B80AB4240F2888002393D44EB1A85B204
:1002D000B3FBFEF00EFB103345EA034500FB08F3C9
:1002E000AB4207D97D1900F1FF3C71D2AB426FD907
:1002F00002383D44EB1A40EA014178E7C1F1200C95
:100300008B4022FA0CF71F4320FA0CF405FA01F394
:100310004FEA174E25FA0CF51C43230CB5FBFEF9EA
:100320001FFA87F80EFB195543EA054509FB08FA41
:10033000AA4502FA01F200FA01F308D97D1909F180
:10034000FF3047D2AA4545D9A9F102093D44A5EBA2
:100350000A05A4B2B5FBFEF00EFB105544EA0544B5
:1003600000FB08F8A04507D93C1900F1FF352DD254
:10037000A0452BD902383C4440EA0940A4EB0804CC
:10038000A0FB02894C45C6464D4619D316D05EB136
:10039000B3EB0E0264EB050404FA0CFCCA404CEA11
:1003A0000202CC40C6E900240021BDE8F0873146B6
:1003B00030460EE7AC46EDE6184601E74345E6D287
:1003C000B8EB020E69EB07050138E0E72846D3E7F2
:1003D00060468FE78146BAE7614677E708464BE714
:1003E000ACF1020C3D4415E702383C4426E700BF5F
:1003F000704700BF7FB5354B354AC3F80026C3F8B8
:100400000426C3F80826C3F80C26C3F81026C3F840
:100410001426C3F81826C3F81C2600F081F82D48CE
:1004200000F060F800B9FEE72B4807F085FC0446B1
:1004300002698168136823F4005313600B684FF45A
:1004400088720D219847A36801A95B6820469847E8
:1004500070B9019B9A040BD44FF08043D3F8003459
:100460000BB1DB0704D503F08FFD1C4804F0D8F86E
:1004700001A800F075FC1A4B1B68834200D0FEE710
:100480004FF4903100200AF0E7FE00B1FEE79DF83E
:100490000800694608F0B6FF009B039C1C44019BC2
:1004A0001D8966194FF02002EFF3118382F3118842
:1004B000BFF36F8F0AF068FA01F0EAFC00F0C4FDA8
:1004C000635983F3088873689847FEE7000001408A
:1004D0003546526EACDC0000BFDC000048D800009E
:1004E0001C07002010B5044C236813B907F024FC46
:1004F0002060206810BD00BF180700201FB5074A04
:1005000003460C46106801AA19460AF0FEFC18B909
:10051000019B2360029B636004B010BD180700209C
:1005200002484FF4C05106F00FBF00BF8E270020D5
:100530002DE9F04FF9B0DFF8F891DDF808B2D9F8FD
:100540000060DDE9844838A817461D460CF0A8FB7A
:10055000002138A807F008F8CDF80C903CB1B8F1AC
:10056000000F04DD4246214638A80CF09DFB7B8934
:10057000B7F808809844FB684FF000099844C845D4
:100580004BD80DA938A80CF0CCFB869B23B12022B8
:100590000DA918460AF052FB002300932A464FF695
:1005A000FF73394607A808F03CFF0446002840F0D6
:1005B000B580DFF8809180464FF0FF370DF11603CC
:1005C00005AA06A907A808F078FF041EC0F2A680B5
:1005D00040F09780BDF816A0BAF1100F34D1BDF8E5
:1005E0001480B8F1200F40F097800699434638AA4E
:1005F00028460AF02BF80446002840F08F80424637
:1006000038A90DA808F0A4FF0446474B1B68834295
:1006100040F084804FF00108D0E7839AA8EB0903EB
:100620009A4228BF1A461346924649465A462846D9
:100630000AF00CF80446002870D15246594638A8F2
:100640000CF032FBD1449AE7BAF1010F36D1BDF874
:100650001430202B60D8069938AA284609F0F6FFF6
:10066000044600285AD19DF814A0BAF1200F03D9EE
:100670004FF0FF342746A1E7D9F800302B4F029303
:10068000029B9C42F4DA1DA80CF00AFB00211DA875
:1006900006F06AFF7B6857F8081B1A681DA80CF063
:1006A00003FB15A91DA80CF03CFB524638A915A860
:1006B0000AF0B4FA0028DDD00134E1E7BAF1200FE6
:1006C0007FF47CAF002F19DBD9F80030BB4215DD79
:1006D000BDF81430B3F5807F1ED1069938AA28469C
:1006E00009F0B4FF0446C8B9FFB2BDF81430009752
:1006F00038AA51460DA800F01FF806464FF0FF3704
:100700005CE7B8F1000F0DD0074B1B68B34201D076
:10071000039B1E68344601E04FF0FF34204679B059
:10072000BDE8F08F0124F9E71C07002054D8000031
:100730000000002050D800002DE9F04F9146ADF5A3
:100740004B7D002298466B4B9DF850631D68074611
:100750008A4627A811460CF05FFA674B53F83640DB
:10076000029403EBC6038AAA5B6819680C44302321
:10077000214602A80AF050FF68BB029B8A9A1344E4
:100780009C4228D129AA214602A80AF059FF10BB91
:100790000DF1B00B5A46214602A80AF051FF064659
:1007A000C8B929A80BF026FB029B28909C4212D1C5
:1007B000CDE9006B3346324629A927A80CF0E8F9A9
:1007C00048B927A806F06EFE28B929A80BF012FB3D
:1007D000804528900AD027A80CF029FA27A80CF009
:1007E00026FA28460DF54B7DBDE8F08FB8F5807FE1
:1007F00002D04FF0FF35F1E7BAF1200FF9D18AAA04
:10080000494627A806F072FE04460028F1D19DF85B
:100810002733BC2BEDD10DF5A4780390DF26454698
:100820000CA80CF03DFA00210CA806F09DFE202239
:100830000DF207310CA80CF037FA042203A90CA81A
:100840000CF032FA04A90CA80CF06BFA1F2E9DF8DC
:100850000F30D4BFB1464FF02009013340464A461D
:1008600004A9A6EB09068DF80F300AF0E7F9002E6F
:10087000C844D5DC28468AAE2A46DF23117816F80C
:1008800001CB013B81EA0C0102F8011BF6D12B7868
:1008900003F07F032B7010F8016B002EA9D10134F7
:1008A000BE2CF8D195F8BE30012BA2D10CA80CF0CB
:1008B000F7F931460CA806F057FE104908220CA89B
:1008C0000CF0F2F9394620220CA80CF0EDF92022A8
:1008D0000DF207210CA80CF0E7F904A90CA80CF004
:1008E00020FA20220DF2073104A808F031FE054657
:1008F00081E700BF0000002054D80000C6DC0000E3
:100900002DE9F04186B00223DFF87080ADF80030A9
:100910000D466F46002617F8010B01A902F090F86A
:100920000446D8B901988168102302AA103909F049
:100930008DFE044628B1019809F087FE0EE00126DD
:10094000E9E71022414602A80AF068F950B101987F
:1009500009F07BFE002EF2D04FF0FF34204606B0A7
:10096000BDE8F08101980AF09AFC0423A0F1080187
:100970002A46019809F06AFE0446DCE774DA0000B2
:100980002DE9F041344B88B0064600200C461D6826
:1009900008F03EFD06A9C0B202F052F800284CD182
:1009A000214608F035FD2C2507A9C0B205FB0465DA
:1009B00002F046F8002830D04FF02C0808FB04F86D
:1009C00006EB0807396911F0100131D14FF480733B
:1009D0000193224B00932A46CDE90311069B029115
:1009E0000846FFF7A5FD05461D4B56F8082006985A
:1009F0009A420CD13A89FB68D1438B4207D8134401
:100A00008268934203D2174B1B68AB4212D084B169
:100A10008268002109F066FE1CE0079809F09BFE41
:100A20000746079809F011FE6B1EEA1C934208D195
:100A300064B90125069809F008FE284608B0BDE80B
:100A4000F08113F8011FB942F0D0B5E7069930469E
:100A500008F07AFE2546EDE7000000208E430020D6
:100A60003DB8F3961C07002073B50D4604460021DF
:100A70002846CDE9001108F026FEF0B1124E22689A
:100A8000B24203D101AA204608F095FDE36AB342C1
:100A900004D16A460121204608F08DFDDDE90032CF
:100AA000934288BF0193019BAB602046019A29467F
:100AB00000F0D4F9002002B070BD05F10801FFF785
:100AC0001FFFAB680193F0E73DB8F3962DE9F84FAF
:100AD000DFF878B01B4C1C4D884691469A4600269C
:100AE0000B9B9E4201D300200FE00B9B174A9F1BDC
:100AF000B7F5806F28BF4FF480673B4606EB0A01CD
:100B0000404609F0A3FD10B10120BDE8F88F0A9915
:100B10003B465A467118484609F0B5FD0028F3D106
:100B2000C4F800563E44C4F80456C4F80856C4F845
:100B30000C56C4F81056C4F81456C4F81856C4F825
:100B40001C56CDE7000001403546526E8E3F002016
:100B50002DE9F0437E4B602285B004460F4600210C
:100B60001E680AF096F87B4B636200217A4B23657E
:100B7000084608F04DFC04F12001C0B201F060FF0E
:100B80000121002008F044FC04F14C01C0B201F046
:100B900057FF0546204608F06EFD024618B10123B6
:100BA00084F858306AE00146204608F04CFD0028E1
:100BB000F5D1204608F0EDFE0028F0D0684608F098
:100BC00079FD6946204608F013FE0028E7D1684603
:100BD00008F079FD80F001016A46C9B2204608F0AC
:100BE00032FD02460028DAD1684608F06CFD8046E6
:100BF00040BB69462046FFF737FF9DF8073084F871
:100C00005830033B012B06D8404608F03EFE10B199
:100C1000FF2384F858309DF80730023B022B06D89A
:100C2000002008F020FE10B1FF2384F8583094F81B
:100C30005830FF2B00D1FEE76A460021204608F01D
:100C400002FDACE79DF80790B9F1010F23D11046E2
:100C500004F048FF831E022B80460DD849462046EB
:100C6000FFF78EFE3D4B1B68984205D001280CBF54
:100C70004FF001084FF0050884F8588094F8583078
:100C80008DF80730042B12D8012B16D82DD0FF2356
:100C900084F8583029E001212046FFF771FE2F4BE0
:100CA0001B6898420CBF9DF80730052378E7052B99
:100CB000EDD1002008F0E9FD12E069462046FFF77B
:100CC000D3FE94F85830DA1E012A05460BD80020CE
:100CD00008F0DBFD05460028D9D1002008F0C3FD4F
:100CE000054610B1D3E7022BF7D094F85830FF2B0C
:100CF00000D1FEE7012B06D06A460021204608F00D
:100D0000A2FC0546B8B900212046FFF739FE064689
:100D1000DFF84880D8F8003083420CD1102200213F
:100D2000684609F0B6FF236AD8F800605A783A712D
:100D30005B68BB603C60E06C09F087FC206A09F0EE
:100D400084FC002D14BF2846304605B0BDE8F08372
:100D50000000002080070020800B00201C070020DE
:100D600008B501460148FFF7F3FE08BD2007002043
:100D700073B516461C4633B3436A5D686379012B2D
:100D800015D101BB1F4B22681B689A4298BF0025F2
:100D9000002008F03DFB01A9C0B201F051FEF0B106
:100DA0000125019809F051FC284602B070BD022BC4
:100DB00009D12368012B08D9124A1268934202D83C
:100DC000B1FA81F149090025E2E7FCD10029DFD021
:100DD0000129F8D12179023918BF0121F3E7294609
:100DE00001982023324609F031FC05460028D7D16E
:100DF000002CD6D0356804482D1A18BF4FF0FF35A7
:100E0000CFE700BF040000203DB8F39673B5064657
:100E100018464B681446104A03F0FF2393420D46D0
:100E200017D10B68012B14D169460AF0ACFA9DF872
:100E30000030032B0DD12146304608F085FC2046BA
:100E40000AF098FAA968204608F0A6FB204604F0AC
:100E5000EBFD02B070BD00BF000100042DE9F04FB2
:100E6000436A0C465E688BB005460121002333447B
:100E70009342084601F10101F9D3714F38602046D1
:100E800008F021FC039798B1E86D08F063FBAB6AAA
:100E90000022013B3244904201D9013BFAE7039A18
:100EA00012689A4204D30123E3710BB0BDE8F08FBE
:100EB00008A9022001F0C4FD09A9052001F0C0FD28
:100EC0000523099A21462846FFF7A0FF6379012BE5
:100ED00008D1039BDFF86CB11F68039B1B68A7B99F
:100EE000012323600223DFF85C81637101270693ED
:100EF000039BDDF820901B68BB424AD2484609F0AC
:100F0000A4FB099809F0A1FBCFE7226801339B1AE3
:100F1000BB423CD36B6ADDF82080196853F8370078
:100F200003EBC703012A53F8083CA0EB0109A3EB2C
:100F3000010A12D1E268099B022A0AD041462846DA
:100F4000049308F001FC22464146284608F031FC93
:100F5000049B1946284608F0F7FB324649464046AE
:100F600008F0F0FB534642464146CDE9009628463C
:100F7000FFF7ACFD2146284608F0B2FB2368013399
:100F8000236020B1DBF800300133CBF80030013FA3
:100F9000A3E72368BB4250D86A6ADDF824A052F860
:100FA00037100591FB0011680491083B296DC85862
:100FB0000968A0EB010B217901293CD1D158049B90
:100FC0003246C91A4846079108F0BCFB07990091C0
:100FD0005B464A46514601962846FFF777FD214673
:100FE000284608F07DFB069B237120B1D8F800301D
:100FF0000133C8F8003032465946504608F0A2FB8B
:10100000DDE9042349469B1ACDE900B6524628463D
:10101000FFF75CFD2146284608F062FB2368013398
:1010200023604FF00103237138B1D8F80030013349
:10103000C8F8003001E00229DDD0013758E700BFD1
:1010400004000020800F0020154B164901221A6071
:101050004FF0FF33C1F84833C1F8083301F5C04100
:1010600004310A60C1F84433C1F8043301F5983102
:101070000A600D4AC2F84833C2F80833A2F50832B4
:101080000021C2F80015C2F8083302F51832C2F880
:101090000015C2F808334FF08042C2F80833704799
:1010A00004B0004000B00040004002402DE9F04391
:1010B0000546079810B91060BDE8F0830324B0FB23
:1010C000F4F404EB4407B84218BF0134B4F1804F84
:1010D00005D34FF0FF3313606FF00B00ECE7A40073
:1010E00001348C4200D80DB91460F5E7DFF8BCE09C
:1010F0002E460024BC4231469C4606F1040603F10C
:1011000003032CD3844225D29CF80060274F01347E
:10111000844238BF9CF801304FEAA60C28BF002358
:1011200017F80CC081F800C0844207EB131C3CBFC9
:101130009B0003F03C034FEA061606F0300638BF6A
:10114000FB5C1CF806604E7028BF3D238B703D236E
:10115000CB7004314D1B002015600870ACE713F80C
:1011600003CC13F8021C13F8018C4FEAAC094FEAC8
:101170000C1C1EF8099006F8049C0CF0300C0EEBC9
:101180001119890019F80CC006F803CC01F03C01D4
:101190000EEB981C08F03F081CF8011006F8021C22
:1011A0001EF8081006F8011C0334A3E75CDE0000FB
:1011B0002DE9F0434FF0000C079EDFF82881074629
:1011C00065466046B5420AD32E4604E00135AE427C
:1011D0000EF1010E05D1A8BB1060BDE8F0834FF001
:1011E000000E5C5D202CF1D0AE42F4D0A6EB0509D8
:1011F000B9F1010F15D90D2C13D103EB050999F89D
:101200000190B9F10A0F1BD0BEF1000F06D13D2CA1
:1012100009D10CF1010CBCF1020F07D96FF01500D8
:10122000DBE70A2CEFE714F0800FF7D118F8044041
:101230007F2CF3D03F2C02D8BCF1000FEED101304F
:101240000135BFE7062500F007046C4304F1070EE3
:10125000C4086C43A4EB0C0404EBDE0487B18C429D
:101260000ED80025DFF87CE0DFF87C801E4439468C
:10127000032428469E4207D1C91B11600020ACE719
:1012800014606FF00B00A8E713F8019BA9F10A0C9A
:101290005FFA8CFCBCF1160F04D828FA0CFC1CF089
:1012A000010FE7D11EF809C00130BCF1400F08BFA3
:1012B000013C0CF03F0C04284CEA8515DAD17CB1D6
:1012C000280C012C087002D101310020D2E7022C39
:1012D0004FEA1520487016BF8D7002310331F4E7D4
:1012E0002046C7E7DCDD0000090040000B68013341
:1012F0000B60014B1B6818470800002007B50B4620
:10130000002102460191034801A900F0EBF803B067
:101310005DF804FBED1200002DE9F84FB0F81890CD
:1013200019F00808044693460DD001290CBF49F076
:10133000100949F02009A0F818908BF31188BFF329
:101340006F8FBDE8F88F09F00709022907D1204601
:1013500008F0BDFB0028F0D00128238B50D167692D
:10136000218B002F15DA256821F00701C4E90088D8
:1013700041F0010121830026218B01F0070ACA45B3
:1013800002D0A368002B5CD10DB9002E74D00023CD
:1013900058E001F007035A1F012A20D821F0070165
:1013A000062B256889B2C4E900880CD1002D2B4694
:1013B00038BF00232BB1628B1B6801326283002B84
:1013C000F8D141F002012183204608F080FB064657
:1013D0000028D1D0238B43F020032383CBE7042BB9
:1013E0000CD121F0070189B22183204608F06FFB60
:1013F00005460028BFD041F0200121830025BAE72F
:10140000032809D1226923F00703166843F0060375
:10141000238300252F46AFE7042806D1226923F055
:101420000703566843F00403F2E7052806D1226952
:1014300023F00703966843F00503E9E700252E46ED
:10144000E8E7012341F0080121838BF31188BFF302
:101450006F8F03BB002D33D116B121492046B04711
:101460004FF02003EFF3118B83F31188BFF36F8FDD
:10147000238B23F008032383238BDA0628D523F05C
:10148000100323830121B4F8189009F007090029FB
:101490007FF45BAF51E7A1680029DBD00B68D1F87E
:1014A00004B0002B38BF0023994652463B462046E5
:1014B000D847B9F1000FCDD0D9F800304946EEE752
:1014C00029463B46524620462D6808F01CFBC1E7E2
:1014D00013F020011EBF23F0200323830221D2E753
:1014E000339B00002DE9F04F8FB01F46531E009034
:1014F0008B4601934FF0000A019B5878252803F191
:10150000010422D100204FF0FF3603F1020C014606
:10151000029034464FF00A0E9CF80020CDF804C02B
:10152000392A0CF1010C57D81F2A18D8002A00F0CC
:101530000482009B594625209847019B59461878FC
:10154000009B98470AF1020AD6E7002800F0F581CF
:10155000009B594698470AF1010A0194CCE7A2F191
:101560002003192BE5D801A555F823F0D515000067
:101570003315000033150000D515000033150000A9
:101580005516000033150000331500003315000018
:101590003315000097160000D51500003315000024
:1015A000AB16000063160000331500006F16000034
:1015B0008B1600008B1600008B1600008B160000A7
:1015C0008B1600008B1600008B1600008B16000097
:1015D0008B16000010469FE7582A00F04581A2F1C3
:1015E0006303DDB2172DA4D8172BA2D801A555F897
:1015F00023F000BFC5180000D1160000331500000D
:101600003315000033150000B1160000D11600009C
:101610003315000033150000B1160000331500002B
:1016200033150000331500000F18000033150000BB
:1016300033150000A718000033150000D116000074
:1016400033150000331500000F180000331500009B
:10165000B1160000009B5946252098470AF1010A5F
:101660004AE7029B03F0FE030293002654E7002C96
:101670000BDA002E0BDA029B002B00F05A8124EAD1
:10168000E4740EFB0424303C46E7002EF7DB0EFB2F
:101690000626303E40E7002E57F8043B01DB1E468D
:1016A0003AE71C1EBFF638AF64420223029333E7C9
:1016B000682A03D1682906D148212DE76C2A02D176
:1016C0006C2900F0388100297FF433AF114623E7FD
:1016D0007A2908D13D4655F8043B98464FEAE3790C
:1016E000752A19D111E06C29F4D04C2905D1FD1DC2
:1016F00025F00705F5E80289F2E73B68752A07F14E
:101700000405984606D14FF00009202878D18D4F66
:10171000013C0CE04FEAE379B8F1000F79F10003E6
:10172000F3DAD8F10008884F69EB4909013C0DABA9
:10173000079300230393039B0693013B03934046C7
:1017400049460A220023FEF7DBFC079B303203F8F0
:101750000129404607930A2200234946CDE904891E
:10176000FEF7CEFCDDE90423002B08BF0A2A8046E1
:101770008946E0D2069B0EAAC3F1010903EB0208D9
:10178000002EA8F1040804DA029B13F0010F18BF21
:101790002646A6EB0903002B0393029BD4BFA4EBC0
:1017A0000904A41B9A0740F1AE80AAEB070606EBDA
:1017B000070A17F8010B002840F0A780039E013E9E
:1017C00040F1A780039B5A1E0132ACBF1F46002781
:1017D0004E46013E40F1A28009F1FF320132ACBF1A
:1017E0004B46002303EB07092646013E40F19C804F
:1017F000631E0133B8BF0024A144CA442F467BE6D0
:101800002B280ABF514F524F04F1FF348FE7702A43
:101810002AD13D4655F8041B00295DD04D4F88461E
:101820004FF00009023C02F06002A2F1390E0DF106
:10183000340C002208F00F03092B88BF73443033A7
:10184000B9F1000F0CF8013908BFB8F1100F4FEAD9
:10185000181302F1FF3043EA09734FEA19111ED23F
:10186000C2F101090EAB89E76C2906D13D464FF064
:10187000000955F8043B984606E04C29F6D1FD1DB9
:1018800025F00705F5E80289232806D1314B324FB0
:1018900012F0200F18BF1F46C4E72D4FC3E70246C2
:1018A00098468946C6E73D4655F8048B404609F000
:1018B000A2F9002E814602DBB042A8BFB146244FF8
:1018C000002666E73D464FF0010955F8043B8DF8C8
:1018D00020300DF12008F2E7DFF880804FF0050995
:1018E000EDE7009B594620209847013EF9D5621E3E
:1018F000531CACBF21460021C4F10004B8BF002432
:101900008A44144451E72646EFE7009B594698471E
:101910004DE7009B59463020984750E718F8010BD7
:10192000009B5946984754E7009B5946202098470A
:101930005BE70123BAE64C21EEE550460FB0BDE867
:10194000F08F00BF9EDE00009CDE0000A0DE0000E5
:10195000D6DE0000A2DE0000A5DE0000A8DE00004A
:1019600008B504464FF02002EFF3118382F311888B
:10197000BFF36F8F09F008F8204603F0F1FA03482F
:1019800008F098F803F03AF8FCE700BFAEDE00007C
:10199000F0B5104B104C114DE41AA4106C43104DCF
:1019A000D5F824C00025A54202D16FF08500F0BD16
:1019B0005F6867450AD31E6946B197F802E0077968
:1019C000BE4503D13346BDE8F04018470135243306
:1019D000E9E700BF0C04002030040020398EE33812
:1019E000840F00202DE9F041124B134C134DE41AE3
:1019F000A4106C43124DD5F824C00025A54203D194
:101A00006FF08500BDE8F0815E6866450ED39F6982
:101A100067B196F8028090F804E0F04503D13B46A8
:101A2000BDE8F04118477679012EF8D0013524330E
:101A3000E4E700BF0C04002030040020398EE338B6
:101A4000840F00202DE9F8430F4C104B17461B1B49
:101A50000F4A9B1005460E4602FB03F94FF00008A3
:101A6000C14502D16FF085000BE063691BB908F135
:101A700001082434F4E73A463146284698470028BE
:101A8000F5D1BDE8F88300BF0C040020300400202D
:101A9000398EE33807B583788DF8003003794279C1
:101AA00043EA0223ADF80230C378684603F003032B
:101AB0008DF8043001F00AFE10F1780F04D018B14F
:101AC000002003B05DF804FB9DF8000001F084FEE7
:101AD00010F1780F01D00028F2D1024B012083F8D9
:101AE000B900EEE7840F00202DE9F14F254B264C7D
:101AF000264F1B1B9B105F43031F012B05460E4601
:101B000025D8234B93F8B920984602B300F092FDF4
:101B1000042D1CD14FF000094F4515D0D4F820B04A
:101B20004FF0000A227F5FFA8AF39A4203D809F144
:101B300001092434F0E70BEBC3030AF1010A187919
:101B400001F074FE0028EDDA002388F8B9300E4C5D
:101B50004FF00008B84508D10D4B1B6A7BB13146E8
:101B6000284601B0BDE8F04F1847E3681BB1324684
:101B700029462046984708F101082434EAE701B0D5
:101B8000BDE8F08F300400200C040020398EE338CB
:101B9000840F00202DE9F04FAE4DAB6985B00646AD
:101BA0000C46904663B9337803F01F03012B00F015
:101BB0008880022B00F0D18043B16FF0150002E065
:101BC00098470028EFD105B0BDE8F08F7278708893
:101BD000D8F80030092AF0D801A151F822F000BF4E
:101BE000091C0000BB1B0000BB1B0000BB1B00004E
:101BF000BB1B0000151C00001F1C0000BB1B0000CD
:101C00004D1C0000571C00000020012258701A7063
:101C100002236FE0C0B201F047FD0020D3E7020AC3
:101C2000131F012BC9D9072AC7D86B6AC0B200217C
:101C30001D78002DC1D05E78964203D1884200F015
:101C4000F18001312B44F3E71B78F1E095F8BA20DD
:101C50001A700123ECE0C7B28DF80F7077B14FF026
:101C6000FF086C6A0026C146237853B9EB691BB1A3
:101C70000DF10F0103209847002E9ED085F8BA7011
:101C8000CBE76378042B0DD0052B0ED0022B06D1A9
:101C900094F805809DF80F30434508BF012623784E
:101CA0001C44E1E794F80390F9E79DF80F304345B1
:101CB000F5D1B9F1000FF2D12046FFF7EBFE064651
:101CC000EDE795F8BA30002B3FF477AF6F6A96F8DE
:101CD00004903B46197800293FF46FAF5A78022AE6
:101CE00003D11879484500F2A5800B44F2E70020A3
:101CF00018700123236066E796F802B0FF26B2460B
:101D00004FF000083B783BB9EB6913B1414607201F
:101D100098470020206056E77B78042B04D0052BE1
:101D20000BD03B781F44EDE7BE7897F803A0B14590
:101D3000F7D1D34508BFB846F3E7B145F1D1D34554
:101D400007D0B878019000F057FC019801F06EFDC3
:101D5000E7E73846FFF79EFEE3E73079D8F80080E2
:101D60008DF80F0030F080071ED03B4B3B4A3C49BA
:101D7000D21A92104A434FF0000C62453FF41DAF57
:101D8000196A93F81C904FF0000E04395FFA8EFA2E
:101D9000CA4503D30CF1010C2433EEE70EF1010E1A
:101DA00011F83EA08245F1D17378012B11D0032B9D
:101DB00024D0002B7FF401AF27B195F8BA30002B67
:101DC0003FF4FBAE414601F0EBFC002088F8010037
:101DD0001EE77388002B7FF4F0AE27B195F8BA3078
:101DE000002B3FF4EAAE01F0BBFCEB69002B3FF4A3
:101DF00014AF0DF10F01092098470EE77388002BEF
:101E00007FF4DBAE27B195F8BA30002B3FF4D5AEA6
:101E100001F07EFCEB69002B3FF4FFAE0DF10F01EA
:101E20000820E9E7022AC8F800307FF40DAF5B888C
:101E30002360F2E67078D8F800300A283FF457AFF4
:101E40000B283FF459AF00287FF4B7AE18705870D4
:101E50002260B8E6840F00200C040020300400202B
:101E6000398EE33808B509480378C3F341130A33C0
:101E700050F823303BB100F1080200F110019847FF
:101E8000C043C00F08BD1846FCE700BF840F002008
:101E900010B5064C94F8B80030B101F0B9FB002839
:101EA000A4BF002084F8B80010BD00BF840F00203C
:101EB00037B5124C237D0546BBB9E268A168019293
:101EC00001AB802008F070FA0199A268E3680A4427
:101ED0005B1AA260E36033B923699D4203DD9B0670
:101EE00001D10123237503B030BD00231A461946E2
:101EF0008020237501F0C0FCF5E700BF840F0020AF
:101F000030B585B00B46002102460191002857D11B
:101F1000002B33D108220DEB020108F0EDFC002864
:101F200004DA802001F0F4FB05B030BD294CBDF887
:101F30000E3002992160802B03999DF80820616082
:101F400006D9D10904D1802001F0E2FB0020E9E7A5
:101F500021492361C4E90213002121750BB1D30982
:101F6000E2D0FFF77FFF0028DBD0E08823698342BF
:101F7000D4BFE360E060FFF79BFFD5E7154CD4E9E1
:101F80000215002D01AB04DC08F0B6FC0028CBDA0A
:101F9000C7E72A4608F0B0FC0028D4DB0199A26804
:101FA000E3680A445B1AA260E360002BBCD104F131
:101FB0003803A360FFF756FF0028B2D0E088DAE7C5
:101FC0008028B1D1034BDA6812B91A7D002AABD050
:101FD000D888D0E7840F0020BC0F0020054B064AAC
:101FE0009A62064ADA62064A1A63064A58629A6197
:101FF00000207047840F0020951B000091190000FD
:10200000451A0000E5190000074B10B593F8B840D9
:1020100024B900F0AFF918B1FFF7E0FF002010BDC0
:102020004FF0FF30FBE700BF840F00202DE9F7439E
:102030000446374D37484FF0FF324FF0FF3306F07C
:1020400077F895F8B860002E42D133482C62E861E9
:1020500001F028FD01F09EFA041E3ADB00F012FBAD
:10206000041E36DB40236846ADF802308DF804606C
:102070008DF8006001F02AFB041E2ADB80276846E9
:102080008DF8007001F022FB041E22DB234930464C
:1020900001F0F4FC041E1CDB2049384601F0EEFC84
:1020A000041E16DB1E4C1F4B1F4A1B1B9B1002FB02
:1020B00003F9B14514D1002001F08EFB041E08DBAA
:1020C000802001F089FB041E03DB012385F8B83072
:1020D0000024104806F0A4F8204603B0BDE8F083C1
:1020E000D4F820800027237FFAB2934202D8013629
:1020F0002434DEE708EBC20358F83210187901F0F7
:10210000BDFC01370028EED04FF0FF34E1E700BFFF
:10211000840F002028030020E91A0000011F00009E
:102120000C04002030040020398EE33830B51C4BFD
:1021300089B003AA03F1100518685968144603C44E
:102140000833AB422246F7D11B78237008220021C6
:1021500001A808F09EFD12220021124808F099FD06
:10216000082101A808F0D7FB002816DD0D4901AAB7
:10217000002012F8013B08AC04EB131403F00F032A
:1021800014F8144C0C7008AC2344013013F8143CC0
:102190004B70082801F10201EBD1024809B030BDB3
:1021A000D7DE00008E4400202DE9F04F6C4A6D4BC5
:1021B0006D499B1A87B09B1000264B430446019340
:1021C0004FF0011AB0463746B146934623783BB9E3
:1021D000664AA01C904200F0C080FFF7E5FF17E0C0
:1021E0006378052B05D8DFE803F07F04037F072B16
:1021F000A14623781C44E9E7E378002BF9D1A378C2
:102200009BB9574A1F46019BBB4204D14FF0FF3098
:1022100007B0BDE8F08F53689C4202F1240209D157
:10222000242303FB07B7BB6833B908F101085FFA41
:1022300088F8DEE70137E6E7414620469847F4E7AD
:10224000002FE3D0002301213A7F9342DED23A6A85
:10225000A57802EBC3021079854201D00133F3E780
:10226000012594F803C094F805E00CF0030C8DF8F8
:1022700014C094F804C04CEA0E2CADF812C094F9C6
:1022800002C0BCF1000FE8B225DA05F1100C01FA2A
:102290000CFC1CEA0A0F23D160F07F008DF81000BF
:1022A00004A8CDE9023208F00FFBDDE9023201217A
:1022B000B0B99DF81030A37013F0800F137118BFE0
:1022C00010350B4615BFAB4003FA05F54AEA030A81
:1022D0004AEA050A8DE701FA05FC1CEA0A0FDDD07F
:1022E0000135102DBDD1B9E7032E1ED1FFF71EFF1A
:1022F000054668B108F07FFC029048B11C4808F020
:102300007AFC029A824203D12946A01C08F096FC6E
:1023100023786FF00201E218091B04EB530300203D
:10232000D14213D50136F6B263E7002EF0D1B9F1F0
:10233000000F3FF46BAFA4EB090389F80230C3F33D
:10234000072389F8033089F80480EBE702F8010CD1
:1023500013F8015902F8025DE2E7184658E700BF9A
:102360000C04002030040020398EE3380B040020D8
:10237000D7DE000008B50448FFF716FF0028024822
:1023800018BF002008BD00BF4C03002010B5094B4A
:1023900000211A461C78844204D15C6814B102EB17
:1023A000811010BD0131042903F14003F2D1002056
:1023B000F7E700BF401000202DE9F34150F8283C1A
:1023C00010F82C5C1033044610D1036950F8202C0F
:1023D00099073CD502BB13F0040304D11A461946F1
:1023E000284607F0E1FF002344F8283C54F8283C35
:1023F00010330ED054F8186C5EB154F81C7C54F8AD
:10240000148C0AF03AFE00284CD02E4821460AF0DF
:10241000E0FE02B0BDE8F08150F8241C01AB284674
:1024200007F0C2FF10B16FF01503DDE7019A54F811
:10243000243C134444F8243C54F8203C9B1A44F8B0
:10244000203C54F81C3C134444F81C3CCEE750F8A4
:10245000241C01AB284601F087FA0028E3D1019E35
:1024600054F8243C334444F8243C54F8203C9B1B4F
:1024700044F8203C54F81C3C334444F81C3C002EE7
:10248000B1D0284601F014FBB6FBF0F303FB10605B
:102490000028A8D154F8203C002BA4D0284601F0F5
:1024A000ABFAA3E744F8180CA4F1100005F032FFD2
:1024B00054F8283C8C33ACD0424639462846B047C5
:1024C000A7E700BF300400204B1E012B73B5064662
:1024D0000D460FD8FFF75AFF044668B9012D09D100
:1024E00001AB01220DF10301304601F03DFA019BE1
:1024F000002BF5D102B070BD0AF0BFFD04F12C0134
:1025000008B1012D03D10846FFF756FFF2E7024854
:102510000AF05FFEEEE700BF300400202DE9F74F20
:1025200005468A469046994607F090FF04460028E3
:1025300059D14FF02003EFF3118B83F31188BFF3D0
:102540006F8F2A49A601002208460023019105F059
:1025500001FF019958B9264FBC19636813F1100F98
:1025600014D10193084605F0D5FE019B06E0013425
:10257000042C01F14001E5D16FF00B038BF31188BE
:10258000BFF36F8F184603B0BDE8F08F0C9B6361FB
:102590000D9BA3616FF00F032061C4E902A8C4F88A
:1025A0003C9063602846BD5501F082FA58B1284638
:1025B00001F07EFAB8FBF0F202FB108018B1E36B79
:1025C00043F00403E36319F0020F07D006F12C0176
:1025D000084839440AF0FDFD0023CFE7284601F002
:1025E0000BFA0346CAE76FF00F03CBE75C1000203D
:1025F000401000203004002010B54FF02003EFF30E
:10260000118483F31188BFF36F8FFFF7BFFE50B1C2
:102610004368103307D16FF08B03436000F12C0146
:1026200003480AF0D6FD84F31188BFF36F8F10BD05
:10263000300400202DE9F041104CDFF844800025E3
:102640006FF08B074FF02003EFF3118683F31188AF
:10265000BFF36F8F6368103305D104F12C0140463E
:1026600067600AF0B6FD86F31188BFF36F8F0135FE
:10267000042D04F14004E5D1BDE8F08140100020B4
:102680003004002070B50A4C0A4E00253146204621
:102690000AF096FD0122A4F11000114601350AF05E
:1026A0007CFD042D04F14004F0D1002070BD00BF7A
:1026B0006C100020B923000070B504460E46017965
:1026C0001048154607F097FEB0B16378212B0ED065
:1026D000222B08D0202B12D1296807220C3808F0B1
:1026E000ADFA002070BD638800F8053CF9E70C38AE
:1026F000072328603360F4E76FF01200F2E76FF011
:102700001500EFE74411002008B50146034807F023
:1027100083FE10B1012300F8033C08BD44110020E2
:102720000169012381F83B300B6833B191F83930EE
:102730001BB1024818310AF04CBD7047300400202C
:102740000169012381F83A300B6833B191F83830D0
:102750001BB1024818310AF03CBD7047300400201C
:1027600038B5056995F88E0078B195F88F306BB95A
:1027700085F83830D5F8800007F08BFD05F1280189
:10278000044603480AF025FD204638BD0020FCE73A
:1027900030040020012310B5144682F8383002F1CD
:1027A000080005F0B7FD23683BB194F83A3023B137
:1027B000094804F118010AF00CFDD4F88030D3E97F
:1027C00000239A4206D004F128010348BDE81040D6
:1027D0000AF0FFBC10BD00BF3004002073B51446E2
:1027E00002F13C060A1E054603DDE06F314607F0A4
:1027F00050FD012384F8393023683BB194F83B3015
:1028000023B1084804F118010AF0E3FC064B0093D9
:1028100001940123402231462846FFF77FFE02B093
:1028200070BD00BF30040020DD2700007FB5836E3F
:102830005B681B6A1E7D0546304607F007FED0B96F
:10284000A86D4FF4806203A907F042FD044690B1E1
:102850008306A5F1280308BF00F1FF340193074B5D
:1028600003990093224602233046FFF757FEA86DD6
:10287000214607F049FD04B070BD00BF9527000058
:1028800030B542680569104C85B042F2A1004FF4A2
:102890000033CDE90103002385F88D30106AADF8CF
:1028A0000C1000790A2201A907F07EFD95F88D3001
:1028B00013B1002005B030BD01200AF0D5FD013C68
:1028C000F4D16FF00400F5E7A186010010B50469AA
:1028D0000023C4F894300F4BC4F89000596804F1F9
:1028E0009402A1B9C3E900224FF0FF32002104F1A4
:1028F00008000AF052FC04F1180007490AF060FCD5
:1029000004F1280005490AF05BFC002010BD0A60B4
:102910005A60E9E74411002077A400002D28000048
:1029200010B50446083005F0F5FC0C4B0021186882
:102930009A889B79C4F88400A4F88820A4F88E10A3
:10294000218784F88A3084F88C1084F88B1004F185
:102950003C004022BDE8104008F09BB930D8000090
:1029600038B50D4601461C4807F036FD0446B8B19F
:102970000246691E52F890395B68052910D8DFE8D5
:1029800001F0100F0310151914F8021C19B91B6A75
:10299000187BFFF723FF012304F8023C04F8583C9E
:1029A00038BDBDE838401046FFF7BABF012304F830
:1029B000013CF5E714F8011C0029F1D014F8020CD1
:1029C000002104F8011C0028EAD01B6A187BBDE82E
:1029D0003840FFF703BF00BF4411002037B5094D51
:1029E0000949002400944FF0FF334FF480622846D9
:1029F00005F0C8FD054928460AF045FB204603B00E
:102A000030BD00BF3004002080510020F2DE000005
:102A1000094B30B51D68094B02461C6800239D42D6
:102A200001DC002030BD190104EB0310615C914210
:102A3000F8D00133F3E700BF58D90000F8000020B8
:102A4000084B1B6810B50C462BB1FFF7E1FF28B10E
:102A50002060002010BD6FF00C00FBE76FF001005C
:102A6000F8E700BFF800002030B589B00C461546E5
:102A70000190FFF7CDFFB8B14368029383682268E5
:102A8000C068CDE903350023CDE90623059307F09F
:102A9000BCFD60B1074901AA08F03BFA079808B9E4
:102AA000059B236009B030BD6FF01500FAE76FF0A9
:102AB0001200F7E70FA60000F8B505464FF0200317
:102AC000EFF3118683F31188BFF36F8F0B4B1C68F4
:102AD000002C38BF00245CB1094FD4E90132002D2D
:102AE00008BF13460BB1387898472468002CF4D1FE
:102AF00086F31188BFF36F8FF8BD00BF4C11002023
:102B000054110020084B10B51C685CB901221A60F2
:102B1000064B93E8070008F0F4F82046BDE81040A3
:102B2000FFF7CABF10BD00BFF40000205411002001
:102B3000F0B585B06E4601460546304607F014FEF6
:102B400096E80700144C84E80700207808B3134B7C
:102B5000002119606B1C0ED0114817464FF4004637
:102B60000021104A0023E6FB0701FDF7C9FA012105
:102B7000281A0AF05BFC05F097FD0120FFF79CFF87
:102B800094E8070008F0AAF8FFF7BCFF05F07EFE06
:102B9000207805B0F0BD00BF54110020F4000020E3
:102BA0003F420F0040420F000E4A70B5841AA31036
:102BB0000D4C5C430546E4B20C2000FB04200E469D
:102BC0004021084407F0DEFD011E05DB074B03EB47
:102BD000C40463689847002128463346BDE8704026
:102BE000184700BF74110020B76DDBB6C8D80000CD
:102BF0002DE9F041104E841BA310104C5C43E4B24D
:102C00000C256543804605F140000F4630444021C5
:102C100007F0D1FD011E09DB094A7319C3E90E272C
:102C2000084B53F83430BDE8F041184740463B4666
:102C3000BDE8F041184700BF74110020B76DDBB646
:102C400019A80000C8D80000002270B50121044670
:102C5000104601F069FE002001F034FE0F4803F039
:102C600059F80F4B984215D103F064F826690D49C5
:102C7000304606F07BFF00280BDB01253564246914
:102C8000084904F11C0006F071FF002801DBE5642F
:102C9000002070BD6FF00400FBE700BFDD2C0000DA
:102CA0000000AD0BD8D8000001460C2309484B4367
:102CB00070B5C418D4E90E5600224033A2631844FC
:102CC00007F097FD2DB132462B460348BDE8704012
:102CD000184770BD74110020FC01002010B10128BC
:102CE00004D07047034B1B6C5B0701D1FFF7DCBFBF
:102CF000704700BF7411002008B54FF02003EFF3B8
:102D0000118183F31188BFF36F8F124A136843F068
:102D1000020013F0010310600CD04FF08042D2F893
:102D20000C34D2F80C2413F0010303D00A4807F046
:102D300060FD012381F31188BFF36F8F23B1BDE8DC
:102D400008400020FFF7B0BFBDE80840012002F0B6
:102D5000FFBF00BFC4110020B4110020094BBFF316
:102D60005B8F53E8002F22F0020143E80010002897
:102D7000F7D1BFF35B8FD30702D4012003F01AB859
:102D8000704700BFC41100201FB500220123CDE908
:102D90000223094ACDF800D06B46CDF804D007F0E5
:102DA00061FD002805DB4FF480420023684605F0F2
:102DB000D1FA05B05DF804FB37A80000024AC3B29F
:102DC0001C2003FB00207047741100202DE9F843FC
:102DD0003A49BFF35B8F0646012251E8003F41E8C4
:102DE00000200028F9D1BFF35B8F33B9344935484F
:102DF0004B60CB608A6006F0CCFE731E012B32D88C
:102E0000012E07D14FF08043D3F81C3403F00303A5
:102E1000012B28D00AF031F9044618B92A4B1B7847
:102E2000002B44D14FF02003EFF3118583F3118879
:102E3000BFF36F8F0124254FDFF89480DFF8949063
:102E40004FF08042D2F81834D2F81824D2030CD5AF
:102E500003F00303012B01D0012E06D10CB385F33F
:102E60001188BFF36F8FBDE8F883ACB1284601F03D
:102E7000D3FD4FF08042D2F81835002BE0D13968ED
:102E80000029DDD03B603B680123C2F81835C8F843
:102E90008031C9F80030D3E70021212005F092FEEF
:102EA000E7E74FF080430222C3F80423DBE74FF04B
:102EB00080430222C3F808230546BCE7C81100205E
:102EC00064110020901100206B510020040100408B
:102ED00000E100E00800004000F07F03082B41B251
:102EE00004D010F0780F01D000207047002900F0C6
:102EF0000F0200F0080005DA58B9084800EB42104C
:102F00004C30704738B9054800EB421000F5B670F8
:102F10007047034870470348704700BFCC17002034
:102F200018190020381A0020014601480AF02AB971
:102F30003C030020014902480AF04BB9F417002075
:102F4000D004002013B50B4803F03AF800240A48D7
:102F500003F07EF84FF0FF334FF4806207490848D2
:102F6000009405F00FFB074907480AF029F92046AD
:102F700002B010BD04DF0000E4D80000A05500201E
:102F8000D0040020A5320000F417002010B511492C
:102F9000BFF35B8F01F12003002253E8000F0128EB
:102FA00003D143E80024002CF7D1BFF35B8F0CBFA3
:102FB000012010460CD1CC690C31204606F057FE9A
:102FC00010F1780F04D12046BDE8104006F02ABE6B
:102FD00010BD00BFCC17002038B5074D074C0022AC
:102FE0000023284605F062F920B1011D20460AF0B1
:102FF0001BF8F4E738BD00BF3C030020BC020020F2
:1030000007B500230E48002201A904F08FFF90B1FC
:10301000FFF7E2FF0A480022002301A904F086FF1F
:1030200038B90198042340600374FFF77DFFFFF770
:1030300081FF002001E00198406003B05DF804FBCF
:10304000BC020020F8B5877806463846FFF744FFF3
:103050003B06F578044612D5002D43D1FFF7D0FF8B
:10306000034600283ED00122A57702740322027392
:103070009C60FFF759FFBDE8F840FFF75BBF4DB11B
:10308000012D2FD1FFF7BCFF034658B365770574B8
:103090000573EDE7FFF7B4FF20B3B378124A13F0DE
:1030A000800F03F0080111D041B1D2F8A836E360D7
:1030B00001230374022303738460DAE703F00F0330
:1030C000142101FB0323D3F80836F0E711B1D2F83D
:1030D000A837ECE703F00F03142101FB0323D3F817
:1030E0000837E4E7F8BD00BF00700240F0B50646BF
:1030F00089B01422002103A807F0CBFD3378013BEF
:10310000052B24D8DFE803F0790317176919032387
:103110008DF814300024FFF773FF0346B8B1002286
:103120008DF81820047400F10802DDE9050182E839
:10313000030018461DE00423EAE7B7783846FFF796
:10314000CBFE837A044623B1013B022B41D909B05F
:10315000F0BD3B06F57811D5002DF8D1FFF750FFF3
:1031600003460028F3D00122A577027403220273DC
:103170009C60FFF7D9FEFFF7DDFEE8E755B1012DB2
:10318000E5D1FFF73DFF03460028E0D065770574E1
:103190000573EDE7FFF734FF07460028D7D001237A
:1031A000037402230373846004F10C01B07808F007
:1031B000BBF9134AE168B2F88C328B4206D95B1A2C
:1031C000A2F88C3203F0EEFC3846D2E7A2F88C521B
:1031D000FAE73046FFF736FFB9E701A803F0BCFC79
:1031E0009DF80530052B04D19DF8043013F0600FD5
:1031F000ADD0044B059301248DE702248BE700BF7B
:10320000CC17002038190020022810B511D8094B1E
:103210001C5CFFF7F5FE60B1002202740472FFF738
:1032200083FE054B93F824301BB1BDE81040FFF737
:1032300081BE10BD01DF0000CC17002038B500248E
:1032400064F07F00C0B2FFF747FE013407F025FBB2
:10325000082CF5D10F4D0024E0B2FFF73DFE0369C5
:1032600013B905EB84130361013407F016FB082C36
:10327000F2D1094C04F5A67007F00FFBD4F87C32AC
:1032800013B9064BC4F87C32054807F006FB002052
:1032900038BD00BFCC150020CC170020CC11002079
:1032A000381A00202DE9F043DFF8E482B04C85B0F5
:1032B000074600220023404604F0F8FF10B905B08D
:1032C000BDE8F08394F82530027C00F104093BB995
:1032D000002A00F08580A748494609F0A5FEE8E7E6
:1032E000042AF8D8DFE812F07C000500020118017A
:1032F0003301037B8568032BEDD8DFE803F0023C44
:10330000595E6E6908220021304607F0C2FC9A4BD4
:103310009A48D3F880243270D3F884247270D3F89A
:103320008824D3F88C1442EA01227280D3F89024C6
:10333000D3F8941442EA0122B280D3F89824D3F847
:103340009C3442EA03230822F3803146EA6007F006
:1033500075FC2B68687A002198473378DB0906D121
:10336000F38823B1A4F88C3203F01CFCB3E70023EC
:10337000A4F88C32AFE76B7F002BACD02B7F002BF7
:10338000A9D000266E774FF0FF322E774FF0FF3333
:103390007B4807F097FA6B6901936B68CDE90236B9
:1033A00001A9687A03F0FAF9754807F089FA92E7FB
:1033B0002B680121687A98478DE7AB7A6BB9EB7F70
:1033C0005BB94FF0FF324FF0FF336D4807F07AFAE8
:1033D00003F014FC6A4807F073FA2B680221E9E74E
:1033E000027A042A3FF677AFDFE802F05B03256933
:1033F000750003F083F9054600287FF46CAF03F0F5
:10340000BFF8BFF35B8F5F49012351E8002F002A0B
:1034100003D141E800300028F7D1BFF35B8F7FF480
:103420005AAF41F8105C41F8085CE06963611439F7
:1034300006F0AFFB4FE7002565F07F00C0B2FFF755
:103440004BFD037A13B1407A03F0CAFD0135082D14
:10345000F2D194F854311BB194F8550103F0C0FD3A
:103460000025E8B2FFF738FD037A13B1407A03F084
:10347000B7FD0135082DF4D194F874321BB194F8DE
:10348000750203F0ADFD012003F012F9012384F869
:1034900025302368002B3FF41EAF002102209847FF
:1034A00019E7002584F8255003F026FDFFF76EFD8F
:1034B0002368002B3FF40FAF29460420EFE7002BD1
:1034C0003FF409AF03F030FD2368002B3FF403AF56
:1034D00000210520E3E72268002A3FF4FCAE002B20
:1034E0003FF4F9AE002106209047F4E607F11005FD
:1034F0004FF0FF334FF0FF32284607F0E3F9FFF7B4
:103500009DFE284607F0DCF957F8283C002B3FF4D5
:10351000E2AE00210120C2E794F874327BB10125AC
:1035200084F8895284F88852FFF76AFD38B1164A48
:10353000057405738260FFF7F7FCFFF7FBFC57F893
:10354000283C002B3FF4C7AE00210A20A7E707F074
:1035500061FF03F0D1FC03F009F8FFF73DFDFFF731
:103560006DFE07F050FF094803F0D2F8B3E600BF44
:10357000CC170020BC02002000700240D0170020B1
:1035800004180020EC170020381A0020ED3000004D
:103590003C03002038B51A4D95F824405CBB05F17A
:1035A000380009F07CFD2046FFF708FC2246E86160
:1035B0000121272001F0B8F9124803F0A9F8124BB5
:1035C00098421AD107F01FFFFFF738FE044610B9E2
:1035D000012385F824300D4B1B680BB1FFF7AAFCC3
:1035E0004FF08043D3F83834DB0702D50020FFF7D3
:1035F0000BFE204638BD0024FBE76FF00404F8E71B
:10360000CC170020ED3000000000AD0B3C03002083
:1036100010B54FF0FF324FF0FF331F4807F052F95B
:10362000FFF7DAFC002464F07F00C0B2FFF754FC1F
:1036300001342022002107F02CFB082CF3D10024B8
:10364000E0B2FFF749FC01342022002107F021FB02
:10365000082CF5D120220021104807F01AFB202267
:1036600000210F4807F015FB03F048F808B103F0FC
:1036700043FC03F03BF808B102F078FFFFF786FC4B
:1036800007F0C8FE0748002480F82440383007F0CF
:1036900017F9204610BD00BF04180020181900209B
:1036A000381A0020CC170020074B93F824203AB199
:1036B00093F82530002B0CBF6FF0120000207047EC
:1036C0006FF01200704700BFCC17002038B50F4BC9
:1036D00093F824300446B3B105782846FFF7FCFB85
:1036E00010B96FF0150038BD457223798372618877
:1036F00041602B0702D44B1E0B42F2D1284607F043
:103700000EFF0020EFE76FF01200ECE7CC1700206F
:1037100038B5124B93F824200546CAB193F82530EA
:10372000B3B1FFF7D9FB0446A8B1837A012B12D0BD
:1037300007D9023B012B07D96369A3610020E06030
:1037400038BD03F063FAF7E7284603F0D7F9F3E74B
:103750006FF01200F4E76FF01500F1E7CC170020CE
:1037600038B50E4B93F82420054682B193F82530E6
:103770006BB1FFF7B1FB68B115F008040AD1284618
:1037800003F0DEF9284603F07DFC204638BD6FF0DB
:103790001200FBE76FF01500F8E700BFCC17002020
:1037A00038B50C4B93F8242005460C4662B193F8CB
:1037B00025304BB1FFF790FB48B144B1284603F0E8
:1037C000A5F92070002038BD6FF01200FBE76FF004
:1037D0001500F8E7CC170020F8B5134E96F8242012
:1037E0000446BAB1FFF778FB0546B0B1230705D40C
:1037F000204603F0A5F9204603F044FC2F7A7FB958
:1038000096F8250001232B7218B1204603F0E8FB3F
:103810003846F8BD6FF01200FBE76FF01500F8E7CF
:103820006FF07700F5E700BFCC17002038B5114BDB
:1038300093F8242004469AB193F8253083B1FFF71A
:103840004BFB054678B1037A83B12046002403F090
:103850009BFB2846AC7707F020F82C72204638BD39
:103860006FF01200FBE76FF01500F8E76FF07700DC
:10387000F5E700BFCC1700202DE9FF47DFF8E48013
:103880001C4698F82430074689461646C246002B47
:103890005DD098F82530002B59D003065AD5FFF794
:1038A0001BFB0546002855D0037A002B52D04FF061
:1038B000FF334FF0FF3208F1380007F003F8AB7F19
:1038C0004BB108F1380006F0FBFF6FF00A04204608
:1038D00004B0BDE8F08716B9EB7F03B1EE77AB7AA1
:1038E000BBB95EB1BAF80A30B34207D96A68B6FB11
:1038F000F2F302FB13630BB90123EB7703F08EF9AC
:10390000B84206D003F07AF9144806F0D9FF002433
:10391000DDE70123AB774FF0000801A93846CDE978
:103920000196CDF80C8002F039FF0D4B984207D07C
:1039300085F81E800CB1C4F800806FF0040402E02A
:103940000CB126604446054806F0BAFFBFE76FF0A9
:103950001204BCE76FF01504B9E700BF041800209B
:103960000000AD0BCC1700202DE9F0411D46204B87
:10397000174693F824200E46002A33D093F82530BA
:1039800083B3030631D401B97FBBFFF7A5FA044620
:1039900058B3037A4BB34FF0FF3316484FF0FF3262
:1039A00006F090FFE3689F42B84628BF984646B9A4
:1039B0003FB905B12B600F4806F082FF0020BDE83B
:1039C000F081A1694246304607F038F9A3694344C3
:1039D000A361E368A3EB0803E360002DEBD0C5F817
:1039E0000080E8E76FF01200E9E76FF01500E6E706
:1039F000CC1700200418002070B51E4D95F8242027
:103A0000034682B395F825206AB31B062ED4FFF730
:103A100063FA044650B3037A43B34FF0FF334FF0D9
:103A2000FF3205F1380006F04DFFE368B3B9012617
:103A300063692677A361637F83B1FFF7E1FA30B949
:103A400005F1380006F03CFF6FF00B0070BD067406
:103A500084600673FFF768FAFFF76CFA064806F011
:103A60002FFF0020F2E76FF01200EFE76FF0150074
:103A7000ECE700BFCC17002004180020084B93F897
:103A8000243010B50C462BB1FFF726FA28B104609C
:103A9000002010BD6FF01200FBE76FF01500F8E793
:103AA000CC170020014B1860704700BFCC170020D6
:103AB00008B5074B93F8243023B1FFF70DFA20B176
:103AC000406808BD6FF01200FBE76FF01500F8E7E3
:103AD000CC170020044A1368C81A20F07F40034422
:103AE000136005F0FDB900BF6C1A00202DE9F04706
:103AF000860006F1804600F1500406F58836A400E1
:103B0000DFF87C80D6F84035A4B204F180444FF44D
:103B1000803721F07F4504F588348740C146D8F8C6
:103B200004A5A3EB0A0323F07F432AF07F42012B75
:103B3000C6F8402502D1132009F096FC0AF10202D2
:103B4000AB1A23F07F43B3F5000F88BF154600235F
:103B500023602368C9F8447325F07F43C6F84035D5
:103B6000D9F804359A4506D0EB1A023B23F07F437F
:103B7000B3F5000F01D8BDE8F0872B46CFE700BFB3
:103B800000100140F8B5104E104F0025104B0020DA
:103B90001C681A4605B1F8BDD6F80413C903FAD556
:103BA00039680029F7D03D6039684FF48031C6F894
:103BB0004813D6F8401501251CB15A681860A04773
:103BC000E4E71460E7E700BF001001404011014046
:103BD000601A002038B5104D00244FF48033C5F82A
:103BE0000845C5F804330D4B4FF40032C3F880216B
:103BF00001212246112000F097FE112000F062FE04
:103C0000074A01231360074A2B6002201360FFF765
:103C1000DDF8204638BD00BF0010014000E100E0A3
:103C200008100140681A0020134BB0F1FF3F08BF95
:103C30001846013800281CDD9842A8BF18460F4BD3
:103C4000D3F804250E4B1968521A12F4000F22F013
:103C50007F4318BF00200B4A013303440A48106019
:103C600000205060044A934294BFC9188918FFF796
:103C70003DBF0020E3E700BFFFFF7F0000100140D1
:103C80006C1A0020601A0020D53A0000044BD3F8CB
:103C90000405044B1B68C01A20F07F40704700BF2A
:103CA000001001406C1A0020014805F039BA00BF2D
:103CB0005CD9000008B5D0B14368042B11D10022B3
:103CC0000368BFF35B8F53E8001F012903D143E86A
:103CD00000200028F7D1BFF35B8F074808BF1046CC
:103CE00008BD3BB1006804F09BFA0020F8E76FF4D0
:103CF000E040F5E70148F3E7E98FFFFFEA8FFFFFB8
:103D000010B5044618B90D4B0D485B6898476168BB
:103D100008290DD031F004030AD011F0020108D0B7
:103D20000848214609F080F90023236000236360DE
:103D300010BD2068142206F0ACFFF7E79C010020BC
:103D40000FDF0000701A002010B5044618B9164B9A
:103D500016485B6898476368042B23D0082B21D052
:103D6000CBB92368BBB912484FF0FF324FF0FF3395
:103D7000214604F0DBF808B923681BB90A4B0D484B
:103D80005B68984720681422002106F082FF636870
:103D900043F002036360206809F081F9636843F02F
:103DA0000103636010BD00BF9C0100200FDF000015
:103DB000701A002035DF000008B508B34368042BF3
:103DC00010D101220368BFF35B8F53E8001F002965
:103DD00003D143E800200028F7D1BFF35B8F0BD15C
:103DE000002008BD53B100684FF0FF324FF0FF33A1
:103DF00004F09EF90028F3D00348F2E70348F0E707
:103E00006FF4E040EDE700BFE98FFFFFEA8FFFFFAF
:103E100008B5064906484023142209F0EAF8BDE82F
:103E200008400449044805F0D1B900BF8C1A0020AD
:103E3000701A002074D9000064D90000F7B5244D31
:103E4000286883685B6C03B19847286883685B6B5C
:103E5000002B35D11F4C204E286883689B69002BAE
:103E600031D001220DF10701984701282BD1236899
:103E700043B933683BB371681A6832608B4200D132
:103E80007260236015499DF807700A88B2F5007FBB
:103E9000084606D22368134402F1010CA1F800C0C1
:103EA0001F720A2FD8D1236802880D495A60002258
:103EB0001A604E684EB9C1E9003302802260CAE739
:103EC00098470028C6D103B0F0BD33604B60F4E7DB
:103ED000B4230020941F00208C1F00208C2700207A
:103EE000AC230020044B10B5044618688368E1B287
:103EF0005B689847204610BDB4230020F8B50646FD
:103F00000B4615464FF02002EFF3118C82F3118817
:103F1000BFF36F8F194C216849B1194A5068884224
:103F200005D000200860506898B9C2E90011154A10
:103F3000116829B1576808681060B94208BF50601D
:103F40008CF31188BFF36F8F216029B9002028609E
:103F5000F8BD01605160EAE748680831F6D05C1EA0
:103F60008442A8BF04462246304606F067FE00237E
:103F7000335501232B60E018EAE700BF981F0020AB
:103F80008C1F0020AC230020234B37B50025C3E94C
:103F90000055224B224AC3F8085203F50271136000
:103FA000196051601F48204C03F0C6FE206028B9FC
:103FB000206848B94FF0FF3003B030BD2846FEF707
:103FC00035F80028F4D0F5E7836823B19B6C13B172
:103FD000164900229847206883685B6B7BB198473D
:103FE00068B9134A2068002313808268926A1C46CD
:103FF0007AB984F31188BFF36F8F0020DCE7206863
:1040000083689B69002BECD001220DF107019847D2
:10401000E6E79047EDE700BFAC2300209C1F00209F
:104020008C1F0020E8DE0000B42300203D3E00008D
:104030008C27002038B54368044698188028154618
:1040400008D80648184406F0F9FD62682A44626000
:10405000002038BD4FF00040FBE700BFA04C00201F
:104060002DE9F041D2B040F60613ADF80C30DFF880
:1040700004813C4BD8F800005C68818803783A4F93
:104080003A4EC4F3072242EA0422428001330A0274
:10409000037042EA112200234370828008210093BA
:1040A00041F2210205F0B9FC01220346ADF81000EF
:1040B0000092214641F22102384605F0AEFC3368F9
:1040C00040BAADF810005B6803A80221984704F1DC
:1040D0000A035BBA0DF11201022206A80225ADF80F
:1040E000123006F0ABFDD8F80010ADF812500822DF
:1040F0000DF11A0006F0A2FDBDF81200083006AB63
:1041000080B2ADF8120022463946184406F096FDFA
:10411000BDF81200204406AB80B2ADF812002A466A
:1041200004A9184406F08AFDBDF812302B449BB256
:1041300005AAADF812300093AD2106AB26A8FCF716
:10414000B5FF05993368ADF8121026A85B6889B2EF
:104150009847336806485B682946984752B0BDE8DF
:10416000F08100BF1C010020A04C0020B8230020DB
:1041700062DF0000BC23002038B50C4C0C4D4FF022
:10418000FF322146284608F0EBFE0A49204606F099
:104190002FFC00230022204608F0C0FE21462846BE
:1041A00008F0EDFEBDE83840FFF75ABFD0230020ED
:1041B000C023002065DF00002DE9FF410C681B4F84
:1041C0001B4B02380D46C4F50071009003AA381944
:1041D0000131FCF7EDFF044628BB2B68039A13441A
:1041E000022B2B601BD939880E0246EA1126B6B283
:1041F000023B9E4213D14FF001080346CDF80080E8
:1042000041F221023146B81C05F007FC38B9022EF4
:1042100005D92B68023B1F442B60BC7044462046E6
:1042200004B0BDE8F0814FF0FF34F8E7204D0020E6
:10423000234F00202DE9F04F0729B3B0054660D980
:10424000047814F0FD045CD14288130243EA12237F
:10425000A1F108069BB2B34253D38288B04BB14957
:104260001860130243EA122383802246AE484C6052
:1042700008F047FEAB88012B40F0BD81EB792BB1F4
:10428000012B00F09D80FFF777FF3AE04FF0FF32FF
:10429000A649A548A64DDFF8B482DFF8B49208F02D
:1042A0005FFEA449A14806F0A3FBA0484FF0FF32EF
:1042B00008A908F052FE002600273146002005F02C
:1042C000A7F807A9C0B2FEF7BBFB044658B92023E4
:1042D000014610AA079806F0B9F9109BAB4216D018
:1042E000079806F0B2F9002F08BF012E0CD108A9DB
:1042F0008E4808F044FE8D498B4808F040FEFFF7D9
:10430000AFFE33B0BDE8F08F01260027D5E740238C
:104310000DF1600A0193CDE90344079B0294CDF8A7
:1043200000A010AA21462046FCF702F90028D7D1A8
:10433000079806F08AF94FF0FF320CA908A808F098
:104340000FFE41460CA806F053FB32463B460CA834
:1043500008F0E4FD49460CA806F04AFB9DF854100D
:10436000504606F023FB32AB441C18444FF02E0B92
:104370009DF8551000F868BC0AEB040006F016FB27
:1043800032AB2044441C1844BDF8561000F868BCF9
:104390000AEB040006F00AFB32AB04442344013468
:1043A000169903F868BC0AEB040006F0FFFA5146C0
:1043B0000CA806F01DFB0CA908A808F0E0FD92E788
:1043C00018AA314605F10800089400F003FA08B96C
:1043D000032638E04FF0FF384FF00009DDF8C4C085
:1043E00018AB22462046254646464F46A346624520
:1043F0004DD1002F08BFB6F1FF3FE9D0BBF1000F50
:10440000E6D0002105F004F808A9C0B2FEF718FBB9
:104410000028DDD156EA0703DFF828A10BD1089B5D
:10442000CAF800009A680023424573EB0903CFDB0A
:10443000414BC3F80080DAF800100023BB4208BFEC
:10444000B1423AD000264FF0FF323849364808F0E2
:1044500087FD3A49354806F0CBFA34483246F3171F
:1044600008F05CFD4EB93649304806F0C1FA354BCC
:104470002E481A68334608F049FD2C492A4808F0AE
:104480007EFDFFF7EDFD089806F0DFF839E7197CAF
:10449000032904D8DFE801F00206090E986801320A
:1044A0001433A4E7D3E902B5F9E7996888464FEADF
:1044B000E179F4E79E68F717F1E71F4B1A68294482
:1044C0009142984684D8089806F03CF9B5FBF0F381
:1044D00003FB1053DAF80000D8F80020411991428C
:1044E00038BFED1A0CA9284428BFDCB2FCF706F847
:1044F00006460028A7D1144F0C993B68994206D173
:10450000DAF8001034BB08982B465A464CE00D9A56
:104510000898396006F0E6F806460028F0D092E7E1
:10452000BC2300201C010020C0230020D023002039
:104530003DB8F39668DF0000E423002065DF00004B
:104540007CDF0000E0230020240100206FDF00005A
:1045500074DF00002E1B2DD0089833465A4606F013
:1045600092F800287FF434AFDAF800303344CAF808
:104570000030B34425462246594610A806F05EFB9B
:10458000089806F0E8F810AB0146C4F108021819C3
:1045900006F07FFB089CDAF80060204606F0D2F8AF
:1045A00010AA03463146204606F06DF800287FF435
:1045B0000FAF01E0002DDED1DAF800301D44D8F84D
:1045C0000030CAF800509D427FF43CAF089804F0D8
:1045D000D3FF0CA9FBF792FF064600287FF433AF08
:1045E0000C993B6899427FF72DAF0D9A089806F019
:1045F00079F8064627E7002B7FF483AEEB79012B91
:104600003FF441AE052B7FF47CAEFFF7B5FD0021F2
:104610004FF4005004F0D6FA0120FDF7A1F970E63E
:104620002DE9F3411B4B1C4FDFF87080186000240C
:10463000054600943E46C4F500712B6801AA01317D
:10464000381998470028019B01DC002BF3D0044463
:104650002BB940F201239C42EDD10024EBE73378E3
:10466000062B09D17378092B0BD1002300936946DF
:10467000A01EFFF7A1FD04E0042B02D17378142BD8
:10468000F5D00128E9D1009940460239FFF7D2FD63
:10469000E3E700BFB8230020214F0020224D002077
:1046A0002DE9F041076805460C4617B90020BDE822
:1046B000F08100231A46D0F8088006F038FA88B155
:1046C000D4E900123E4806F0A9FA064650B903465E
:1046D000024604F10801284606F0EFF910B12674ED
:1046E0000120E4E700232F60C5F808801A46214620
:1046F000284606F01CFA80B1D4E90012314806F0D1
:104700008DFA034648B9024604F10801284606F02E
:104710000EFA10B101202074C9E700232F60C5F8FC
:1047200008801A462146284606F001FA80B1D4E9ED
:104730000012254806F072FA034648B9024604F111
:104740000801284606F0B9F910B102232374C7E71F
:1047500000232F60C5F808801A462146284606F037
:10476000E6F978B1D4E90012184806F057FA034682
:1047700040B9024604F10801284606F09EF908B146
:104780000323E3E700232F60C5F808801A4621467B
:10479000284606F0CCF9002888D0D4E900120C484D
:1047A00006F03CFA0346002880D1024604F10801D5
:1047B000284606F0BCF900283FF478AF0423C5E78B
:1047C00080DF000086DF00008BDF00007CDF000060
:1047D0008FDF000070B58CB00125099009AE084448
:1047E0000A900523144607A92A4630460B9506F081
:1047F000A9F9002360B11422CDE90332CDE90143C8
:104800000096054B04F164020521284606F0B8F92C
:1048100000F001000CB070BDA1460000094A0A4931
:10482000936809689967094958674B6843F0805352
:104830004B60002383F31188BFF36F8F9368986FE9
:10484000704700BF2C270020FCDB000000ED00E0DB
:1048500012498A684FF030001044EFF3098C80E869
:10486000F01F202080F31188BFF36F8F0C4F4FF0A3
:1048700000664A6A8A603E60506F0023536780F387
:10488000118804B5104600F0A3FABDE8044002F117
:10489000300090E8F01F8CF3098870472C27002027
:1048A00004ED00E01EF0040F0CBFEFF30880EFF3FF
:1048B0000980816911F8021C0229FFD001B506F0B8
:1048C0008FF901BD43B2002B08DB012200F01F006D
:1048D00002FA00F05B09024A42F82300704700BF69
:1048E00000E100E043B2002B0DDB01225B0900F088
:1048F0001F0002FA00F02033034A42F82300BFF3FE
:104900004F8FBFF36F8F704700E100E0054B420906
:1049100000F01F0053F82220012303FA00F010409A
:10492000704700BF00E100E043B2002BA8BF03F1D5
:10493000604301F10101B8BF064B4FEA4111ACBF22
:1049400003F5614300F00F00C9B2B4BF195483F8F6
:104950000013704714ED00E042F8203C009B42F841
:104960001C3C0A49019B42F8183C029B42F8143C4B
:1049700021F001014FF0807342F8043C42F8081C1A
:104980000023203A02654367704700BFCF9C0000B8
:104990000B4A0346906890B113F1160F406E05D094
:1049A000A0F120029A4206D8834204D281422CBF51
:1049B0000021012100E00021002908BF00207047EC
:1049C0002C27002008B5094B98600D46144600F0CE
:1049D000FFF9204685F30988002163B681F3118829
:1049E000BFF36F8F0022002305F071F92C27002000
:1049F000014910220A60704710ED00E072B6404095
:104A000080F31188BFF36F8FBFF34F8F30BF62B653
:104A1000BFF36F8F704700BF72B6494081F31188B2
:104A200020BF80F3118862B6704700BF30BFFFF728
:104A3000FDBF00BF0B4A08B50B4B22F07F029A6006
:104A4000BFF34F8FBFF36F8FD3F8882022F470022B
:104A5000C3F8882003F09CF904F050F900F08EF9B7
:104A600003F0BAF90000000000ED00E001B572B6F5
:104A70000B4A106A00281EBF0021116208F008FBD3
:104A800062B6EFF30580A0F110004FEAC0000549BF
:104A9000014409C99847BDE801400349084700009F
:104AA0002C27002044D60000DD4C0000002080F3BD
:104AB0001488BFF36F8F06F00FF900200D490860CE
:104AC000BFF34F8F0C4880F3088800F025F92020B1
:104AD00080F3118809484FF40261401880F3098877
:104AE000EFF314800221084380F31488BFF36F8F23
:104AF000FFF7A0FF94ED00E0C0810020408300207C
:104B0000EFF30880EFF3098101B5724600F068F811
:104B100001BD00BF38B5194B14469A6A9A6A9A6A61
:104B20000546900719D5586B9A6A120615D519B122
:104B30009A6A22F080029A629A6A9A6A9A6AD106FE
:104B40000ED49B6A9A070BD400200C4A936A43F058
:104B5000FF0393620023237038BD6FF01500EBE76D
:104B6000064B5B681B05EFD52946FFF711FF0028B0
:104B7000EAD080F309880220E7E700BF00ED00E0FB
:104B80000D4B9A6A9A6A9A6A920508D59A6B9A6A44
:104B9000120404D518B19A6A22F400429A62064BB4
:104BA0009A6A9A6AD20558BF9A6A9A6A002042F4B1
:104BB0007F429A620870704700ED00E0074B9A6AE6
:104BC0009A6A9A6A9A6A9A6A9A6A9A6A6FEA024230
:104BD0006FEA12429A620020704700BF00ED00E0C9
:104BE00070B5374B5B688AB00E46C3F308030025E7
:104BF00085F31188BFF36F8F02F07F41B1F17F4FD2
:104C000011D102F00C0108290DD0110701D406467C
:104C100001250022033B8DF80720032B48D8DFE84D
:104C200003F0043F433C2E46F3E7254BDA6A920734
:104C30003ED4DC6A14F0804409D028331B78F3B1E9
:104C40000DF1070201213046FFF764FF04469DF88D
:104C5000073093B92022314602A805F0EFFF099BE7
:104C600045B3C3F3080222B96FEA53236FEA432323
:104C7000099302A9204605F0B1FF0AB070BD114B9F
:104C80001B782BB10DF107010120FFF779FFDDE75C
:104C90000D4B188884B2002CD9D0FFF78FFFD5E7D1
:104CA0000DF107020021CEE70DF107010020ECE72E
:104CB0000024CCE723F4FF7323F00103D8E700BFFF
:104CC00000ED00E029ED00E02AED00E0024A536922
:104CD00043F010035361704700ED00E0044B996806
:104CE000586A884203D003494FF080520A607047E7
:104CF0002C27002004ED00E0064A11680023C1F3D0
:104D0000072118468B4200D1704793601061013330
:104D1000F8E700BF90ED00E008B572B6002383F31A
:104D20001388FFF7E9FF144B4FF0FF32C3F88020E0
:104D3000C3F88420C3F88820C3F88C20C3F89020DF
:104D4000C3F89420C3F89820C3F89C20C3F88021AE
:104D5000C3F88421C3F88821C3F88C21C3F89021BB
:104D6000C3F89421C3F89821C3F89C2162B6BFF31D
:104D70004F8FBFF36F8F08BD00E100E004480023B0
:104D80002021C2180133302B82F80013F9D170476B
:104D900000E100E0064B9B68834207D1EFF30583F7
:104DA00023B1044A536843F08053536003F042BF79
:104DB0002C27002000ED00E0024B034A03480121AC
:104DC00000F068B8000004200000002088D900002E
:104DD000426E054B203A1A60044A2021C3E90112B1
:104DE0001846012100F060B8E823002000000B15F0
:104DF000F0B51E4F00268E4201DB1046F0BD446820
:104E000084B353B104F1FF3C14EA0C0F18D11F2CEA
:104E100016D905681CEA050F12D1202C0568D0F8B8
:104E200008C0D2B20FD9B4F1004F0ED8013CB4FA89
:104E300084F4C4F11F046400072A4CEA040406D970
:104E40006FF01502D9E70824F6E73E24F4E725F0D1
:104E50001F05154345F0100544F00104BA60FD60DC
:104E600001323C6101360C30C5E700BF90ED00E037
:104E7000034B05225A60BFF34F8FBFF36F8F70470C
:104E800090ED00E0BFF35F8F014B00225A60704746
:104E900090ED00E010B5034C01232278FFF7A8FF46
:104EA000207010BD2251002008B5084A0023127856
:104EB000FFF79EFF10F1160F03D0054B00220728C5
:104EC00000DD08BD98601A610130F8E7225100202A
:104ED00090ED00E013490868082810B51ED8FFF7C8
:104EE000D1FF114C49680022904201F10C0105D11B
:104EF0000E4B1870FFF7BCFF002010BDA26051F8E8
:104F00000C3C23F01F03134343F01003E36051F8FC
:104F1000043C43F0010323610132E5E74FF0FF3029
:104F2000EBE700BF94D9000090ED00E02251002093
:104F30004FF02003EFF3118283F31188BFF36F8FDB
:104F400006490123C1F840354FF08041C1F878355A
:104F500082F31188BFF36F8F0020704700E001409B
:104F60004FF08043C0B2C3F81C05BFF34F8F054913
:104F7000054BCA6802F4E0621343CB60BFF34F8F66
:104F800000BFFDE700ED00E00400FA0520B1034B8F
:104F9000800143F001031847704700BF40D800006C
:104FA00008B5094B1A786AB9012119700620052144
:104FB000FFF7BAFC0620FFF785FC044B4FF00042D8
:104FC000C3F80423002008BD2351002000600040E6
:104FD0002B4BF0B544682B481340834241D00DD889
:104FE000062B15D005D89BB1022B3CD06FF01500D5
:104FF00036E0B3F5801FF9D1012309E0224883424E
:1050000033D0B3F5A00F32D0B3F5800FEED1022329
:10501000D00654BFC2F34016032682F4807597056C
:10502000C2F34020C5F3002507D512F4006F67686E
:105030001FD001228A40C7F80825227A134C012A82
:1050400001F01F0140EA450218BF4FF0A04442EAB8
:10505000032301F5E07143EA860344F82130002080
:10506000F0BD0723D4E70423D2E70523D0E70323C9
:10507000CEE7520542BF01228A40C7F80C25DCE783
:105080000600F0000600100002004000000300507F
:1050900000F01F024009084B012818BF4FF0A04341
:1050A00003EB8203D3F8002722F4403242EA0142A4
:1050B000C3F80027704700BF000300502DE9F84FE8
:1050C0000369D0F804A0DE68DFF87CB08846D3E935
:1050D00005210A4326EA0206DAF804201B69D2F801
:1050E00010555D4026EA0505374601244FF00009BA
:1050F00017B92846BDE8F88F3C4221D09AF808300D
:1051000009F01F00344240EA431014D14209012A39
:1051100000F01F0314BF4FF0A0425A4603F5E0739E
:1051200052F82330C3F30143022B02BFD8F80030FA
:105130002343C8F800300021FFF7AAFF27EA04073D
:1051400009F101096400D3E700030050F7B50E46EA
:1051500041680769097A06F01F05B2F5A03F45EAE4
:10516000411510D16809012805F01F015D4801F5BE
:10517000E07118BF4FF0A04050F82110C80707D5C4
:105180006FF0850093E0B2F5005FF96800F0918060
:10519000F8680121B14001437869F9600121B1400B
:1051A000B2F5A03FBA690CBF08438843B3F5C02FDE
:1051B0000CBF0A438A43BA613A697861B3F5802F1C
:1051C0000CBF114322EA0101474A3961D2F8043386
:1051D0000020DBB200F5A27152F82110C1F30521C5
:1051E0008D426BD123FA00F1C90767D5830003F123
:1051F000804303F5C043D3F8101521F00101C3F833
:10520000101501238340C2F80833C0B200F04CFEF1
:1052100028460021FFF73CFFF868F04010F001003D
:1052200045D07869F04010F001044ED0BB69F340DE
:10523000DB075FBF396921FA06F606F00106C6F101
:1052400002060DF1070054BFF6B2032600F04EFE31
:10525000264B984236D19DF807108B0003F180430E
:1052600003F5C0432D02D3F8102522F44F3222F467
:105270004072C3F81025D3F8102505F47C5515436A
:105280008A0002F1804202F5C24245EA0646002049
:10529000C3F8106510601268D3F8102542F00102BF
:1052A000C3F81025104A01238B40C2F8043303B021
:1052B000F0BD0120B04021EA00016DE7013008286F
:1052C00088D1A5E76FF01200F1E73969F14001F0EC
:1052D0000101C1F103012846C9B2FFF7D9FE2046FA
:1052E000E5E700BF00030050006000400000AD0B88
:1052F000F0B5002485B0CDE90044CDE90244264E46
:1053000035685DB102A92548FFF7D8FE03A90090D2
:105310002348FFF7D3FE019034603368214C00220C
:1053200001269446D4F8043306FA02F119421BD040
:10533000910001F1804101F5C2410B68A3B102F572
:10534000A27304AF54F82330C1F800C0C3F3403057
:1053500007EB8000C3F3042350F8107C06FA03F334
:105360003B4340F8103C0B680132082ADAD1009A1E
:105370001AB10A490C4805F0CFFC019A1AB1084944
:105380000A4805F0C9FC2DB1044805F02FFD04487A
:1053900005F02CFD05B0F0BD7C6100405C020020F2
:1053A0007402002000600040002400201C24002023
:1053B000024B0B6001231360704700BF38240020AC
:1053C0000048704708DA000010B50122114606486F
:1053D000064C07F0E2FE06F006F8206005F0FFFF3D
:1053E0006060002010BD00BF402400203824002051
:1053F0004FF08042D2F81015D2F8103501F01E019E
:1054000023F01F030B4343F00103C2F81035024B96
:1054100000221A70704700BF245100204FF08041D5
:10542000D1F8102512F001001AD0D1F810050D4B5B
:1054300020F01F0002F01E021043C1F8100518688A
:1054400058B1D1F8103523F01F03134343F0010383
:10545000C1F810356FF08B007047034B01221A70B2
:10546000704700BF08010040245100202DE9F0479B
:105470000E463046194617461C4605F0DDFCC0B303
:1054800046EA040515F0030533D1CCB11A48DFF81C
:105490007090DFF870A04FF0FF324FF0FF3302F052
:1054A00059FF24F00304AC4206EB05080BD1134A64
:1054B000D2F80034DB07FBD500240F4802F02AFFA6
:1054C0002046BDE8F087D9F80030082B0AD079597A
:1054D000404600F063FD9AF800300BB1FFF788FFFB
:1054E0000435E0E7FFF79AFF0028F0D06FF08B0457
:1054F000E3E76FF01504E3E74024002000E00140FB
:1055000030010010245100202DE9F0410E461546CF
:1055100005F065FF29460746304605F08DFCA0B32F
:10552000B6FBF7F307FB13637BBBB5FBF7F307FB96
:10553000135454BBBD421ED34FF0FF324FF0FF3324
:105540001348144FDFF8508002F004FF05F047FFC6
:1055500004463B68082B11D0304600F0FFFC98F859
:1055600000300BB1FFF744FF2D1B2644F1D12C4630
:10557000074802F0CFFE2046BDE8F081FFF74EFF5E
:105580000028E9D06FF08B04F2E76FF01504F2E722
:10559000402400203001001024510020F0B54B7948
:1055A000012B2AD0032B25D110268B79032B21D157
:1055B000CC792CB1012C1DD143685B689B0719D0B5
:1055C0000A7912B1022A15D10E220B684568B3F58B
:1055D000164F2D6865D02DD8B3F5165F64D016D858
:1055E000B3F5966F62D00AD8B3F5967F61D0B3F564
:1055F000167F61D06FF0850052E00026D5E7B3F545
:10560000166F5CD0B3F5965FF4D1374B3CE0B3F541
:10561000E14F57D007D8B3F5615F55D0B3F5964F3A
:10562000E8D1324B30E047F61227BB42E2D14FF4CB
:10563000000329E0B3F5613F48D013D8B3F5963F96
:1056400047D009D84DF6C027BB4244D0B3F5614FCF
:10565000D0D14FF46B0317E0B3F5E13FCAD14FF05F
:10566000EB7311E0B3F5612F38D008D8204FBB425F
:1056700037D0B3F5E12FBDD14FF0E86304E01D4F03
:10568000BB42B7D14FF08053C5F82435036903C935
:10569000344322430433C5F86C2583E8030000201B
:1056A000F0BD4FF41D03EFE7134BEDE74FF49E23DE
:1056B000EAE74FF4A033E7E74FF41C33E4E74FF495
:1056C0001D23E1E70D4BDFE70D4BDDE74FF06C737A
:1056D000DAE70C4BD8E74FF46503D5E74FF070637A
:1056E000D2E74FF08063CFE700B0130000A04E0078
:1056F00090D0030040420F000050270000C075000A
:1057000000F03A0000903A01F8B5066905460F46E8
:1057100007F0B3FC10B9204B1B7883B94FF020037E
:10572000EFF3118483F31188BFF36F8F284605F0E0
:1057300089FC28BB84F31188BFF36F8FEEE76424E4
:10574000284605F07FFC70B9012005F040FE013CC1
:10575000F6D10021212003F035FAF0E784F3118817
:10576000BFF36F8FF5E74FF02003EFF3118483F35E
:105770001188BFF36F8F284605F064FC0028EDD038
:105780003146012201F8147F284605F0EEFC84F32F
:105790001188BFF36F8FF8BD6B51002000F01F021E
:1057A00040090128044B02F5E07218BF4FF0A043F6
:1057B000032143F8221070470003005000F01F013E
:1057C00040090128044B4FF0010218BF4FF0A043DD
:1057D0008A40C3F8082570470003005043682DE94C
:1057E000F0411C6807690D460023C4F800350646E1
:1057F00038600868FFF7E2FF2868FFF7CFFF6A68A4
:10580000511C0CD05109012902F01F03404903F536
:10581000E07318BF4FF0A0410C2041F823002B6823
:10582000C4F80C35AB68C4F814255A1C0CD003F02E
:105830001F025B09012B02F5E072354B18BF4FF0D8
:10584000A0430C2143F82210E868431C04D0FFF762
:10585000B5FFE868FFF7A2FFD5E902323169C4F865
:1058600008250431C4F810353046FFF797FE80460E
:10587000002847D173685B68190719D507F116002E
:1058800000F040FC234B98423FD1B87DC30003F1A8
:10589000804303F5F83304F10C0204F59071C3F86A
:1058A0001015C3F814251C4A01238340C2F804359F
:1058B0000823C4F800356B6801330CD00023C4F80A
:1058C0001031D4F8103107F11503C4F83435012331
:1058D000C4F83835236073685B681A075CBF4FF4FF
:1058E0008072C4F80423DB0644BF4FF48003C4F87D
:1058F000043314370023C4F84475C4F84835012331
:10590000A360E3604046BDE8F0816FF00408F9E76A
:10591000000300500000AD0B00F0014030B50A4B11
:1059200005460FCB85B06C4684E80F0000220121AC
:105930000220FEF7F9FF0220FEF7C4FF21462846A9
:10594000FFF74CFF05B030BD10D8000030B50A4B52
:1059500005460FCB85B06C4684E80F00002201217C
:105960002820FEF7E1FF2820FEF7ACFF214628465D
:10597000FFF734FF05B030BD20D80000F0B5284C4B
:10598000DFF8A0C0236800260CEB03171D01D7F831
:10599000087817F0FF0F0CD106B123604FF0805349
:1059A0001E69B0FBF6F406FB14045CB16FF0150041
:1059B00007E00133072B4FF00106E5D923606FF0B4
:1059C0001B00F0BD1E69B1FBF6F406FB1414002C9D
:1059D000ECD11C695B6963438B42E7D30029E5D0B6
:1059E00005F1804303F5F0331C46C3F80008C3F803
:1059F0000418C3F80828D3F80058A8420CD1D3F8EB
:105A00000438994208D1D4F80838DBB293420CBF6D
:105A100000206FF00D00D4E76FF00D00D1E700BF5C
:105A20005824002000E001408168054A08B510397B
:105A3000102304F028FE003818BF012008BD00BF65
:105A400074DA000030B50C46816887B0102302AAD2
:105A50001039054604F0FAFD002811DB102202A9D6
:105A6000284605F00BFC68B103232370A9680123C5
:105A70000DF107022839284604F0E8FD00280BDA6A
:105A800001202AE01649102202A805F0C7F80028D4
:105A900014BF02230123E8E79DF8073003F00F024B
:105AA0001B096270237101220DF10701284605F0E0
:105AB000E5FB10B96378042B03D90123637000233D
:105AC0002371AA68A11C203A284605F0FFFB002894
:105AD000D6D1E11C284605F052FC07B030BD00BF0E
